{
  "contractName": "MultiSigWallet",
  "abi": [
    {
      "inputs": [
        {
          "internalType": "address[]",
          "name": "_owners",
          "type": "address[]"
        }
      ],
      "stateMutability": "nonpayable",
      "type": "constructor"
    },
    {
      "anonymous": false,
      "inputs": [
        {
          "indexed": true,
          "internalType": "address",
          "name": "newAdmin",
          "type": "address"
        }
      ],
      "name": "AdminTransfer",
      "type": "event"
    },
    {
      "anonymous": false,
      "inputs": [
        {
          "indexed": true,
          "internalType": "address",
          "name": "sender",
          "type": "address"
        },
        {
          "indexed": true,
          "internalType": "uint256",
          "name": "transactionId",
          "type": "uint256"
        }
      ],
      "name": "Confirmation",
      "type": "event"
    },
    {
      "anonymous": false,
      "inputs": [
        {
          "indexed": true,
          "internalType": "address",
          "name": "sender",
          "type": "address"
        },
        {
          "indexed": false,
          "internalType": "uint256",
          "name": "value",
          "type": "uint256"
        }
      ],
      "name": "Deposit",
      "type": "event"
    },
    {
      "anonymous": false,
      "inputs": [
        {
          "indexed": true,
          "internalType": "uint256",
          "name": "transactionId",
          "type": "uint256"
        }
      ],
      "name": "Execution",
      "type": "event"
    },
    {
      "anonymous": false,
      "inputs": [
        {
          "indexed": true,
          "internalType": "uint256",
          "name": "transactionId",
          "type": "uint256"
        }
      ],
      "name": "ExecutionFailure",
      "type": "event"
    },
    {
      "anonymous": false,
      "inputs": [
        {
          "indexed": true,
          "internalType": "address",
          "name": "owner",
          "type": "address"
        }
      ],
      "name": "OwnerAddition",
      "type": "event"
    },
    {
      "anonymous": false,
      "inputs": [
        {
          "indexed": true,
          "internalType": "address",
          "name": "owner",
          "type": "address"
        }
      ],
      "name": "OwnerRemoval",
      "type": "event"
    },
    {
      "anonymous": false,
      "inputs": [
        {
          "indexed": false,
          "internalType": "uint256",
          "name": "quorum",
          "type": "uint256"
        }
      ],
      "name": "QuorumUpdate",
      "type": "event"
    },
    {
      "anonymous": false,
      "inputs": [
        {
          "indexed": true,
          "internalType": "address",
          "name": "sender",
          "type": "address"
        },
        {
          "indexed": true,
          "internalType": "uint256",
          "name": "transactionId",
          "type": "uint256"
        }
      ],
      "name": "Revocation",
      "type": "event"
    },
    {
      "anonymous": false,
      "inputs": [
        {
          "indexed": true,
          "internalType": "uint256",
          "name": "transactionId",
          "type": "uint256"
        }
      ],
      "name": "Submission",
      "type": "event"
    },
    {
      "stateMutability": "payable",
      "type": "fallback",
      "payable": true
    },
    {
      "inputs": [
        {
          "internalType": "uint256",
          "name": "",
          "type": "uint256"
        }
      ],
      "name": "_validTransactions",
      "outputs": [
        {
          "internalType": "bool",
          "name": "executed",
          "type": "bool"
        },
        {
          "internalType": "address",
          "name": "destination",
          "type": "address"
        },
        {
          "internalType": "uint256",
          "name": "value",
          "type": "uint256"
        },
        {
          "internalType": "bytes",
          "name": "data",
          "type": "bytes"
        }
      ],
      "stateMutability": "view",
      "type": "function",
      "constant": true
    },
    {
      "inputs": [
        {
          "internalType": "address",
          "name": "owner",
          "type": "address"
        }
      ],
      "name": "addOwner",
      "outputs": [],
      "stateMutability": "nonpayable",
      "type": "function"
    },
    {
      "inputs": [],
      "name": "admin",
      "outputs": [
        {
          "internalType": "address",
          "name": "",
          "type": "address"
        }
      ],
      "stateMutability": "view",
      "type": "function",
      "constant": true
    },
    {
      "inputs": [
        {
          "internalType": "uint256",
          "name": "",
          "type": "uint256"
        },
        {
          "internalType": "address",
          "name": "",
          "type": "address"
        }
      ],
      "name": "confirmations",
      "outputs": [
        {
          "internalType": "bool",
          "name": "",
          "type": "bool"
        }
      ],
      "stateMutability": "view",
      "type": "function",
      "constant": true
    },
    {
      "inputs": [
        {
          "internalType": "address",
          "name": "",
          "type": "address"
        }
      ],
      "name": "isOwner",
      "outputs": [
        {
          "internalType": "bool",
          "name": "",
          "type": "bool"
        }
      ],
      "stateMutability": "view",
      "type": "function",
      "constant": true
    },
    {
      "inputs": [
        {
          "internalType": "uint256",
          "name": "",
          "type": "uint256"
        }
      ],
      "name": "owners",
      "outputs": [
        {
          "internalType": "address",
          "name": "",
          "type": "address"
        }
      ],
      "stateMutability": "view",
      "type": "function",
      "constant": true
    },
    {
      "inputs": [
        {
          "internalType": "address",
          "name": "owner",
          "type": "address"
        }
      ],
      "name": "removeOwner",
      "outputs": [],
      "stateMutability": "nonpayable",
      "type": "function"
    },
    {
      "inputs": [
        {
          "internalType": "address",
          "name": "newAdmin",
          "type": "address"
        }
      ],
      "name": "renounceAdmin",
      "outputs": [],
      "stateMutability": "nonpayable",
      "type": "function"
    },
    {
      "inputs": [],
      "name": "transactionCount",
      "outputs": [
        {
          "internalType": "uint256",
          "name": "",
          "type": "uint256"
        }
      ],
      "stateMutability": "view",
      "type": "function",
      "constant": true
    },
    {
      "inputs": [
        {
          "internalType": "uint256",
          "name": "",
          "type": "uint256"
        }
      ],
      "name": "transactions",
      "outputs": [
        {
          "internalType": "bool",
          "name": "executed",
          "type": "bool"
        },
        {
          "internalType": "address",
          "name": "destination",
          "type": "address"
        },
        {
          "internalType": "uint256",
          "name": "value",
          "type": "uint256"
        },
        {
          "internalType": "bytes",
          "name": "data",
          "type": "bytes"
        }
      ],
      "stateMutability": "view",
      "type": "function",
      "constant": true
    },
    {
      "inputs": [
        {
          "internalType": "address",
          "name": "_from",
          "type": "address"
        },
        {
          "internalType": "address",
          "name": "_to",
          "type": "address"
        }
      ],
      "name": "transferOwner",
      "outputs": [],
      "stateMutability": "nonpayable",
      "type": "function"
    },
    {
      "stateMutability": "payable",
      "type": "receive",
      "payable": true
    },
    {
      "inputs": [
        {
          "internalType": "address",
          "name": "destination",
          "type": "address"
        },
        {
          "internalType": "uint256",
          "name": "value",
          "type": "uint256"
        },
        {
          "internalType": "bytes",
          "name": "data",
          "type": "bytes"
        }
      ],
      "name": "submitTransaction",
      "outputs": [
        {
          "internalType": "uint256",
          "name": "transactionId",
          "type": "uint256"
        }
      ],
      "stateMutability": "nonpayable",
      "type": "function"
    },
    {
      "inputs": [
        {
          "internalType": "uint256",
          "name": "transactionId",
          "type": "uint256"
        }
      ],
      "name": "confirmTransaction",
      "outputs": [],
      "stateMutability": "nonpayable",
      "type": "function"
    },
    {
      "inputs": [
        {
          "internalType": "uint256",
          "name": "transactionId",
          "type": "uint256"
        }
      ],
      "name": "executeTransaction",
      "outputs": [],
      "stateMutability": "nonpayable",
      "type": "function"
    },
    {
      "inputs": [
        {
          "internalType": "uint256",
          "name": "transactionId",
          "type": "uint256"
        }
      ],
      "name": "revokeTransaction",
      "outputs": [],
      "stateMutability": "nonpayable",
      "type": "function"
    },
    {
      "inputs": [],
      "name": "getOwners",
      "outputs": [
        {
          "internalType": "address[]",
          "name": "",
          "type": "address[]"
        }
      ],
      "stateMutability": "view",
      "type": "function",
      "constant": true
    },
    {
      "inputs": [],
      "name": "getValidTransactions",
      "outputs": [
        {
          "components": [
            {
              "internalType": "bool",
              "name": "executed",
              "type": "bool"
            },
            {
              "internalType": "address",
              "name": "destination",
              "type": "address"
            },
            {
              "internalType": "uint256",
              "name": "value",
              "type": "uint256"
            },
            {
              "internalType": "bytes",
              "name": "data",
              "type": "bytes"
            }
          ],
          "internalType": "struct MultiSigWallet.Transaction[]",
          "name": "",
          "type": "tuple[]"
        }
      ],
      "stateMutability": "view",
      "type": "function",
      "constant": true
    },
    {
      "inputs": [],
      "name": "getQuorum",
      "outputs": [
        {
          "internalType": "uint256",
          "name": "",
          "type": "uint256"
        }
      ],
      "stateMutability": "view",
      "type": "function",
      "constant": true
    }
  ],
  "bytecode": "0x60806040523480156200001157600080fd5b5060405162003b9538038062003b95833981810160405281019062000037919062000486565b80336000806101000a81548173ffffffffffffffffffffffffffffffffffffffff021916908373ffffffffffffffffffffffffffffffffffffffff160217905550600381511015620000c0576040517f08c379a0000000000000000000000000000000000000000000000000000000008152600401620000b7906200055e565b60405180910390fd5b60005b81518110156200015857600160026000848481518110620000e957620000e862000580565b5b602002602001015173ffffffffffffffffffffffffffffffffffffffff1673ffffffffffffffffffffffffffffffffffffffff16815260200190815260200160002060006101000a81548160ff02191690831515021790555080806200014f90620005e8565b915050620000c3565b50806001908051906020019062000171929190620001ea565b50600062000191600180549050603c620001ba60201b6200226d1760201c565b9050620001ab816064620001d260201b620022831760201c565b600381905550505050620006fd565b60008183620001ca919062000635565b905092915050565b60008183620001e29190620006c5565b905092915050565b82805482825590600052602060002090810192821562000266579160200282015b82811115620002655782518260006101000a81548173ffffffffffffffffffffffffffffffffffffffff021916908373ffffffffffffffffffffffffffffffffffffffff160217905550916020019190600101906200020b565b5b50905062000275919062000279565b5090565b5b80821115620002945760008160009055506001016200027a565b5090565b6000604051905090565b600080fd5b600080fd5b600080fd5b6000601f19601f8301169050919050565b7f4e487b7100000000000000000000000000000000000000000000000000000000600052604160045260246000fd5b620002fc82620002b1565b810181811067ffffffffffffffff821117156200031e576200031d620002c2565b5b80604052505050565b60006200033362000298565b9050620003418282620002f1565b919050565b600067ffffffffffffffff821115620003645762000363620002c2565b5b602082029050602081019050919050565b600080fd5b600073ffffffffffffffffffffffffffffffffffffffff82169050919050565b6000620003a7826200037a565b9050919050565b620003b9816200039a565b8114620003c557600080fd5b50565b600081519050620003d981620003ae565b92915050565b6000620003f6620003f08462000346565b62000327565b905080838252602082019050602084028301858111156200041c576200041b62000375565b5b835b81811015620004495780620004348882620003c8565b8452602084019350506020810190506200041e565b5050509392505050565b600082601f8301126200046b576200046a620002ac565b5b81516200047d848260208601620003df565b91505092915050565b6000602082840312156200049f576200049e620002a2565b5b600082015167ffffffffffffffff811115620004c057620004bf620002a7565b5b620004ce8482850162000453565b91505092915050565b600082825260208201905092915050565b7f5468657265206e65656420746f2062652061746c65617374203320696e69746960008201527f616c207369676e61746f7269657320666f7220746869732077616c6c65740000602082015250565b600062000546603e83620004d7565b91506200055382620004e8565b604082019050919050565b60006020820190508181036000830152620005798162000537565b9050919050565b7f4e487b7100000000000000000000000000000000000000000000000000000000600052603260045260246000fd5b7f4e487b7100000000000000000000000000000000000000000000000000000000600052601160045260246000fd5b6000819050919050565b6000620005f582620005de565b91507fffffffffffffffffffffffffffffffffffffffffffffffffffffffffffffffff82036200062a5762000629620005af565b5b600182019050919050565b60006200064282620005de565b91506200064f83620005de565b9250817fffffffffffffffffffffffffffffffffffffffffffffffffffffffffffffffff04831182151516156200068b576200068a620005af565b5b828202905092915050565b7f4e487b7100000000000000000000000000000000000000000000000000000000600052601260045260246000fd5b6000620006d282620005de565b9150620006df83620005de565b925082620006f257620006f162000696565b5b828204905092915050565b613488806200070d6000396000f3fe60806040526004361061010d5760003560e01c80639ace38c211610095578063c26c12eb11610064578063c26c12eb14610434578063c64274741461045f578063dcf506e41461049c578063ee22610b146104dc578063f851a440146105055761016c565b80639ace38c214610375578063a0e67e2b146103b5578063b77bf600146103e0578063c01a8c841461040b5761016c565b806331678cf6116100dc57806331678cf6146102945780633411c81c146102bd5780635e1fab0f146102fa5780637065cb4814610323578063735631ad1461034c5761016c565b8063025e7c27146101c6578063173825d91461020357806320ea82991461022c5780632f54bf6e146102575761016c565b3661016c57600034111561016a573373ffffffffffffffffffffffffffffffffffffffff167fe1fffcc4923d04b559f4d29a8bfc6cda04eb5b0d3c460751c2402c5c5cc9109c346040516101619190612310565b60405180910390a25b005b60003411156101c4573373ffffffffffffffffffffffffffffffffffffffff167fe1fffcc4923d04b559f4d29a8bfc6cda04eb5b0d3c460751c2402c5c5cc9109c346040516101bb9190612310565b60405180910390a25b005b3480156101d257600080fd5b506101ed60048036038101906101e8919061236b565b610530565b6040516101fa91906123d9565b60405180910390f35b34801561020f57600080fd5b5061022a60048036038101906102259190612420565b61056f565b005b34801561023857600080fd5b50610241610983565b60405161024e9190612644565b60405180910390f35b34801561026357600080fd5b5061027e60048036038101906102799190612420565b610aef565b60405161028b9190612675565b60405180910390f35b3480156102a057600080fd5b506102bb60048036038101906102b69190612690565b610b0f565b005b3480156102c957600080fd5b506102e460048036038101906102df91906126d0565b610fda565b6040516102f19190612675565b60405180910390f35b34801561030657600080fd5b50610321600480360381019061031c9190612420565b611009565b005b34801561032f57600080fd5b5061034a60048036038101906103459190612420565b61111d565b005b34801561035857600080fd5b50610373600480360381019061036e919061236b565b611441565b005b34801561038157600080fd5b5061039c6004803603810190610397919061236b565b611741565b6040516103ac949392919061275a565b60405180910390f35b3480156103c157600080fd5b506103ca611826565b6040516103d79190612855565b60405180910390f35b3480156103ec57600080fd5b506103f56118b4565b6040516104029190612310565b60405180910390f35b34801561041757600080fd5b50610432600480360381019061042d919061236b565b6118ba565b005b34801561044057600080fd5b50610449611b57565b6040516104569190612310565b60405180910390f35b34801561046b57600080fd5b50610486600480360381019061048191906129ac565b611b61565b6040516104939190612310565b60405180910390f35b3480156104a857600080fd5b506104c360048036038101906104be919061236b565b611d2b565b6040516104d3949392919061275a565b60405180910390f35b3480156104e857600080fd5b5061050360048036038101906104fe919061236b565b611e20565b005b34801561051157600080fd5b5061051a612249565b60405161052791906123d9565b60405180910390f35b6001818154811061054057600080fd5b906000526020600020016000915054906101000a900473ffffffffffffffffffffffffffffffffffffffff1681565b60008054906101000a900473ffffffffffffffffffffffffffffffffffffffff1673ffffffffffffffffffffffffffffffffffffffff163373ffffffffffffffffffffffffffffffffffffffff16146105fd576040517f08c379a00000000000000000000000000000000000000000000000000000000081526004016105f490612a78565b60405180910390fd5b80600073ffffffffffffffffffffffffffffffffffffffff168173ffffffffffffffffffffffffffffffffffffffff160361066d576040517f08c379a000000000000000000000000000000000000000000000000000000000815260040161066490612b0a565b60405180910390fd5b8160011515600260008373ffffffffffffffffffffffffffffffffffffffff1673ffffffffffffffffffffffffffffffffffffffff16815260200190815260200160002060009054906101000a900460ff16151514610701576040517f08c379a00000000000000000000000000000000000000000000000000000000081526004016106f890612b76565b60405180910390fd5b6000600260008573ffffffffffffffffffffffffffffffffffffffff1673ffffffffffffffffffffffffffffffffffffffff16815260200190815260200160002060006101000a81548160ff02191690831515021790555060005b6001808054905061076d9190612bc5565b8110156108a7578373ffffffffffffffffffffffffffffffffffffffff166001828154811061079f5761079e612bf9565b5b9060005260206000200160009054906101000a900473ffffffffffffffffffffffffffffffffffffffff1673ffffffffffffffffffffffffffffffffffffffff16036108945760018080805490506107f79190612bc5565b8154811061080857610807612bf9565b5b9060005260206000200160009054906101000a900473ffffffffffffffffffffffffffffffffffffffff166001828154811061084757610846612bf9565b5b9060005260206000200160006101000a81548173ffffffffffffffffffffffffffffffffffffffff021916908373ffffffffffffffffffffffffffffffffffffffff1602179055506108a7565b808061089f90612c28565b91505061075c565b5060018054806108ba576108b9612c70565b5b6001900381819060005260206000200160006101000a81549073ffffffffffffffffffffffffffffffffffffffff0219169055905561097e600180548060200260200160405190810160405280929190818152602001828054801561097457602002820191906000526020600020905b8160009054906101000a900473ffffffffffffffffffffffffffffffffffffffff1673ffffffffffffffffffffffffffffffffffffffff168152602001906001019080831161092a575b5050505050612299565b505050565b60606006805480602002602001604051908101604052809291908181526020016000905b82821015610ae657838290600052602060002090600302016040518060800160405290816000820160009054906101000a900460ff161515151581526020016000820160019054906101000a900473ffffffffffffffffffffffffffffffffffffffff1673ffffffffffffffffffffffffffffffffffffffff1673ffffffffffffffffffffffffffffffffffffffff16815260200160018201548152602001600282018054610a5590612cce565b80601f0160208091040260200160405190810160405280929190818152602001828054610a8190612cce565b8015610ace5780601f10610aa357610100808354040283529160200191610ace565b820191906000526020600020905b815481529060010190602001808311610ab157829003601f168201915b505050505081525050815260200190600101906109a7565b50505050905090565b60026020528060005260406000206000915054906101000a900460ff1681565b60008054906101000a900473ffffffffffffffffffffffffffffffffffffffff1673ffffffffffffffffffffffffffffffffffffffff163373ffffffffffffffffffffffffffffffffffffffff1614610b9d576040517f08c379a0000000000000000000000000000000000000000000000000000000008152600401610b9490612a78565b60405180910390fd5b81600073ffffffffffffffffffffffffffffffffffffffff168173ffffffffffffffffffffffffffffffffffffffff1603610c0d576040517f08c379a0000000000000000000000000000000000000000000000000000000008152600401610c0490612b0a565b60405180910390fd5b81600073ffffffffffffffffffffffffffffffffffffffff168173ffffffffffffffffffffffffffffffffffffffff1603610c7d576040517f08c379a0000000000000000000000000000000000000000000000000000000008152600401610c7490612b0a565b60405180910390fd5b8360011515600260008373ffffffffffffffffffffffffffffffffffffffff1673ffffffffffffffffffffffffffffffffffffffff16815260200190815260200160002060009054906101000a900460ff16151514610d11576040517f08c379a0000000000000000000000000000000000000000000000000000000008152600401610d0890612b76565b60405180910390fd5b8360001515600260008373ffffffffffffffffffffffffffffffffffffffff1673ffffffffffffffffffffffffffffffffffffffff16815260200190815260200160002060009054906101000a900460ff16151514610da5576040517f08c379a0000000000000000000000000000000000000000000000000000000008152600401610d9c90612d4b565b60405180910390fd5b60005b600180549050811015610e9b578673ffffffffffffffffffffffffffffffffffffffff1660018281548110610de057610ddf612bf9565b5b9060005260206000200160009054906101000a900473ffffffffffffffffffffffffffffffffffffffff1673ffffffffffffffffffffffffffffffffffffffff1603610e88578560018281548110610e3b57610e3a612bf9565b5b9060005260206000200160006101000a81548173ffffffffffffffffffffffffffffffffffffffff021916908373ffffffffffffffffffffffffffffffffffffffff160217905550610e9b565b8080610e9390612c28565b915050610da8565b506000600260008873ffffffffffffffffffffffffffffffffffffffff1673ffffffffffffffffffffffffffffffffffffffff16815260200190815260200160002060006101000a81548160ff0219169083151502179055506001600260008773ffffffffffffffffffffffffffffffffffffffff1673ffffffffffffffffffffffffffffffffffffffff16815260200190815260200160002060006101000a81548160ff0219169083151502179055508573ffffffffffffffffffffffffffffffffffffffff167f8001553a916ef2f495d26a907cc54d96ed840d7bda71e73194bf5a9df7a76b9060405160405180910390a28473ffffffffffffffffffffffffffffffffffffffff167ff39e6e1eb0edcf53c221607b54b00cd28f3196fed0a24994dc308b8f611b682d60405160405180910390a2505050505050565b60076020528160005260406000206020528060005260406000206000915091509054906101000a900460ff1681565b60008054906101000a900473ffffffffffffffffffffffffffffffffffffffff1673ffffffffffffffffffffffffffffffffffffffff163373ffffffffffffffffffffffffffffffffffffffff1614611097576040517f08c379a000000000000000000000000000000000000000000000000000000000815260040161108e90612a78565b60405180910390fd5b806000806101000a81548173ffffffffffffffffffffffffffffffffffffffff021916908373ffffffffffffffffffffffffffffffffffffffff1602179055508073ffffffffffffffffffffffffffffffffffffffff167f1d751f0bc5c9e1dd4d5952599ce7bb9ef42169fb73003fc75d9e6a26d135136c60405160405180910390a250565b60008054906101000a900473ffffffffffffffffffffffffffffffffffffffff1673ffffffffffffffffffffffffffffffffffffffff163373ffffffffffffffffffffffffffffffffffffffff16146111ab576040517f08c379a00000000000000000000000000000000000000000000000000000000081526004016111a290612a78565b60405180910390fd5b80600073ffffffffffffffffffffffffffffffffffffffff168173ffffffffffffffffffffffffffffffffffffffff160361121b576040517f08c379a000000000000000000000000000000000000000000000000000000000815260040161121290612b0a565b60405180910390fd5b8160001515600260008373ffffffffffffffffffffffffffffffffffffffff1673ffffffffffffffffffffffffffffffffffffffff16815260200190815260200160002060009054906101000a900460ff161515146112af576040517f08c379a00000000000000000000000000000000000000000000000000000000081526004016112a690612d4b565b60405180910390fd5b6001600260008573ffffffffffffffffffffffffffffffffffffffff1673ffffffffffffffffffffffffffffffffffffffff16815260200190815260200160002060006101000a81548160ff0219169083151502179055506001839080600181540180825580915050600190039060005260206000200160009091909190916101000a81548173ffffffffffffffffffffffffffffffffffffffff021916908373ffffffffffffffffffffffffffffffffffffffff1602179055508273ffffffffffffffffffffffffffffffffffffffff167ff39e6e1eb0edcf53c221607b54b00cd28f3196fed0a24994dc308b8f611b682d60405160405180910390a261143c600180548060200260200160405190810160405280929190818152602001828054801561143257602002820191906000526020600020905b8160009054906101000a900473ffffffffffffffffffffffffffffffffffffffff1673ffffffffffffffffffffffffffffffffffffffff16815260200190600101908083116113e8575b5050505050612299565b505050565b3360011515600260008373ffffffffffffffffffffffffffffffffffffffff1673ffffffffffffffffffffffffffffffffffffffff16815260200190815260200160002060009054906101000a900460ff161515146114d5576040517f08c379a00000000000000000000000000000000000000000000000000000000081526004016114cc90612ddd565b60405180910390fd5b8133600015156007600084815260200190815260200160002060008373ffffffffffffffffffffffffffffffffffffffff1673ffffffffffffffffffffffffffffffffffffffff16815260200190815260200160002060009054906101000a900460ff1615151461157b576040517f08c379a000000000000000000000000000000000000000000000000000000000815260040161157290612e6f565b60405180910390fd5b83600015156005600083815260200190815260200160002060000160009054906101000a900460ff161515146115e6576040517f08c379a00000000000000000000000000000000000000000000000000000000081526004016115dd90612f01565b60405180910390fd5b6005600086815260200190815260200160002060000160019054906101000a900473ffffffffffffffffffffffffffffffffffffffff16600073ffffffffffffffffffffffffffffffffffffffff168173ffffffffffffffffffffffffffffffffffffffff160361168c576040517f08c379a000000000000000000000000000000000000000000000000000000000815260040161168390612b0a565b60405180910390fd5b60006007600088815260200190815260200160002060003373ffffffffffffffffffffffffffffffffffffffff1673ffffffffffffffffffffffffffffffffffffffff16815260200190815260200160002060006101000a81548160ff021916908315150217905550853373ffffffffffffffffffffffffffffffffffffffff167ff6a317157440607f36269043eb55f1287a5a19ba2216afeab88cd46cbcfb88e960405160405180910390a3505050505050565b60056020528060005260406000206000915090508060000160009054906101000a900460ff16908060000160019054906101000a900473ffffffffffffffffffffffffffffffffffffffff16908060010154908060020180546117a390612cce565b80601f01602080910402602001604051908101604052809291908181526020018280546117cf90612cce565b801561181c5780601f106117f15761010080835404028352916020019161181c565b820191906000526020600020905b8154815290600101906020018083116117ff57829003601f168201915b5050505050905084565b606060018054806020026020016040519081016040528092919081815260200182805480156118aa57602002820191906000526020600020905b8160009054906101000a900473ffffffffffffffffffffffffffffffffffffffff1673ffffffffffffffffffffffffffffffffffffffff1681526020019060010190808311611860575b5050505050905090565b60045481565b3360011515600260008373ffffffffffffffffffffffffffffffffffffffff1673ffffffffffffffffffffffffffffffffffffffff16815260200190815260200160002060009054906101000a900460ff1615151461194e576040517f08c379a000000000000000000000000000000000000000000000000000000000815260040161194590612ddd565b60405180910390fd5b8133600015156007600084815260200190815260200160002060008373ffffffffffffffffffffffffffffffffffffffff1673ffffffffffffffffffffffffffffffffffffffff16815260200190815260200160002060009054906101000a900460ff161515146119f4576040517f08c379a00000000000000000000000000000000000000000000000000000000081526004016119eb90612e6f565b60405180910390fd5b6005600085815260200190815260200160002060000160019054906101000a900473ffffffffffffffffffffffffffffffffffffffff16600073ffffffffffffffffffffffffffffffffffffffff168173ffffffffffffffffffffffffffffffffffffffff1603611a9a576040517f08c379a0000000000000000000000000000000000000000000000000000000008152600401611a9190612b0a565b60405180910390fd5b60016007600087815260200190815260200160002060003373ffffffffffffffffffffffffffffffffffffffff1673ffffffffffffffffffffffffffffffffffffffff16815260200190815260200160002060006101000a81548160ff021916908315150217905550843373ffffffffffffffffffffffffffffffffffffffff167f4a504a94899432a9846e1aa406dceb1bcfd538bb839071d49d1e5e23f5be30ef60405160405180910390a3611b5085611e20565b5050505050565b6000600354905090565b60003360011515600260008373ffffffffffffffffffffffffffffffffffffffff1673ffffffffffffffffffffffffffffffffffffffff16815260200190815260200160002060009054906101000a900460ff16151514611bf7576040517f08c379a0000000000000000000000000000000000000000000000000000000008152600401611bee90612ddd565b60405180910390fd5b600454915060405180608001604052806000151581526020018673ffffffffffffffffffffffffffffffffffffffff168152602001858152602001848152506005600084815260200190815260200160002060008201518160000160006101000a81548160ff02191690831515021790555060208201518160000160016101000a81548173ffffffffffffffffffffffffffffffffffffffff021916908373ffffffffffffffffffffffffffffffffffffffff160217905550604082015181600101556060820151816002019081611ccf91906130cd565b50905050600160046000828254611ce6919061319f565b92505081905550817fc0ba8fe4b176c1714197d43b9cc6bcf797a4a7461c5fe8d0ef6e184ae7601e5160405160405180910390a2611d23826118ba565b509392505050565b60068181548110611d3b57600080fd5b90600052602060002090600302016000915090508060000160009054906101000a900460ff16908060000160019054906101000a900473ffffffffffffffffffffffffffffffffffffffff1690806001015490806002018054611d9d90612cce565b80601f0160208091040260200160405190810160405280929190818152602001828054611dc990612cce565b8015611e165780601f10611deb57610100808354040283529160200191611e16565b820191906000526020600020905b815481529060010190602001808311611df957829003601f168201915b5050505050905084565b3360011515600260008373ffffffffffffffffffffffffffffffffffffffff1673ffffffffffffffffffffffffffffffffffffffff16815260200190815260200160002060009054906101000a900460ff16151514611eb4576040517f08c379a0000000000000000000000000000000000000000000000000000000008152600401611eab90612ddd565b60405180910390fd5b81600015156005600083815260200190815260200160002060000160009054906101000a900460ff16151514611f1f576040517f08c379a0000000000000000000000000000000000000000000000000000000008152600401611f1690612f01565b60405180910390fd5b60008080600090505b6001805490508110156120075760076000878152602001908152602001600020600060018381548110611f5e57611f5d612bf9565b5b9060005260206000200160009054906101000a900473ffffffffffffffffffffffffffffffffffffffff1673ffffffffffffffffffffffffffffffffffffffff1673ffffffffffffffffffffffffffffffffffffffff16815260200190815260200160002060009054906101000a900460ff1615611fe657600183611fe3919061319f565b92505b6003548310611ff457600191505b8080611fff90612c28565b915050611f28565b50801561224257600060056000878152602001908152602001600020905060018160000160006101000a81548160ff02191690831515021790555060008160000160019054906101000a900473ffffffffffffffffffffffffffffffffffffffff1673ffffffffffffffffffffffffffffffffffffffff168260010154836002016040516120959190613283565b60006040518083038185875af1925050503d80600081146120d2576040519150601f19603f3d011682016040523d82523d6000602084013e6120d7565b606091505b5050905080156121f45760068290806001815401808255809150506001900390600052602060002090600302016000909190919091506000820160009054906101000a900460ff168160000160006101000a81548160ff0219169083151502179055506000820160019054906101000a900473ffffffffffffffffffffffffffffffffffffffff168160000160016101000a81548173ffffffffffffffffffffffffffffffffffffffff021916908373ffffffffffffffffffffffffffffffffffffffff16021790555060018201548160010155600282018160020190816121bf91906132b0565b505050867f33e13ecb54c3076d8e8bb8c2881800a4d972b792045ffae98fdf46df365fed7560405160405180910390a261223f565b867f526441bb6c1aba3c9a4a6ca1d6545da9c2333c8c48343ef398eb858d72b7923660405160405180910390a260008260000160006101000a81548160ff0219169083151502179055505b50505b5050505050565b60008054906101000a900473ffffffffffffffffffffffffffffffffffffffff1681565b6000818361227b9190613398565b905092915050565b600081836122919190613421565b905092915050565b60006122a78251603c61226d565b90506122b4816064612283565b6003819055507f672e46ac0e6acc1662bb680b70032b6d2669924997353a59f789f7be780f8d3e6003546040516122eb9190612310565b60405180910390a15050565b6000819050919050565b61230a816122f7565b82525050565b60006020820190506123256000830184612301565b92915050565b6000604051905090565b600080fd5b600080fd5b612348816122f7565b811461235357600080fd5b50565b6000813590506123658161233f565b92915050565b60006020828403121561238157612380612335565b5b600061238f84828501612356565b91505092915050565b600073ffffffffffffffffffffffffffffffffffffffff82169050919050565b60006123c382612398565b9050919050565b6123d3816123b8565b82525050565b60006020820190506123ee60008301846123ca565b92915050565b6123fd816123b8565b811461240857600080fd5b50565b60008135905061241a816123f4565b92915050565b60006020828403121561243657612435612335565b5b60006124448482850161240b565b91505092915050565b600081519050919050565b600082825260208201905092915050565b6000819050602082019050919050565b60008115159050919050565b61248e81612479565b82525050565b61249d816123b8565b82525050565b6124ac816122f7565b82525050565b600081519050919050565b600082825260208201905092915050565b60005b838110156124ec5780820151818401526020810190506124d1565b838111156124fb576000848401525b50505050565b6000601f19601f8301169050919050565b600061251d826124b2565b61252781856124bd565b93506125378185602086016124ce565b61254081612501565b840191505092915050565b60006080830160008301516125636000860182612485565b5060208301516125766020860182612494565b50604083015161258960408601826124a3565b50606083015184820360608601526125a18282612512565b9150508091505092915050565b60006125ba838361254b565b905092915050565b6000602082019050919050565b60006125da8261244d565b6125e48185612458565b9350836020820285016125f685612469565b8060005b85811015612632578484038952815161261385826125ae565b945061261e836125c2565b925060208a019950506001810190506125fa565b50829750879550505050505092915050565b6000602082019050818103600083015261265e81846125cf565b905092915050565b61266f81612479565b82525050565b600060208201905061268a6000830184612666565b92915050565b600080604083850312156126a7576126a6612335565b5b60006126b58582860161240b565b92505060206126c68582860161240b565b9150509250929050565b600080604083850312156126e7576126e6612335565b5b60006126f585828601612356565b92505060206127068582860161240b565b9150509250929050565b600082825260208201905092915050565b600061272c826124b2565b6127368185612710565b93506127468185602086016124ce565b61274f81612501565b840191505092915050565b600060808201905061276f6000830187612666565b61277c60208301866123ca565b6127896040830185612301565b818103606083015261279b8184612721565b905095945050505050565b600081519050919050565b600082825260208201905092915050565b6000819050602082019050919050565b60006127de8383612494565b60208301905092915050565b6000602082019050919050565b6000612802826127a6565b61280c81856127b1565b9350612817836127c2565b8060005b8381101561284857815161282f88826127d2565b975061283a836127ea565b92505060018101905061281b565b5085935050505092915050565b6000602082019050818103600083015261286f81846127f7565b905092915050565b600080fd5b600080fd5b7f4e487b7100000000000000000000000000000000000000000000000000000000600052604160045260246000fd5b6128b982612501565b810181811067ffffffffffffffff821117156128d8576128d7612881565b5b80604052505050565b60006128eb61232b565b90506128f782826128b0565b919050565b600067ffffffffffffffff82111561291757612916612881565b5b61292082612501565b9050602081019050919050565b82818337600083830152505050565b600061294f61294a846128fc565b6128e1565b90508281526020810184848401111561296b5761296a61287c565b5b61297684828561292d565b509392505050565b600082601f83011261299357612992612877565b5b81356129a384826020860161293c565b91505092915050565b6000806000606084860312156129c5576129c4612335565b5b60006129d38682870161240b565b93505060206129e486828701612356565b925050604084013567ffffffffffffffff811115612a0557612a0461233a565b5b612a118682870161297e565b9150509250925092565b600082825260208201905092915050565b7f41646d696e20726573747269637465642066756e6374696f6e00000000000000600082015250565b6000612a62601983612a1b565b9150612a6d82612a2c565b602082019050919050565b60006020820190508181036000830152612a9181612a55565b9050919050565b7f5370656369666965642064657374696e6174696f6e20646f65736e277420657860008201527f6973740000000000000000000000000000000000000000000000000000000000602082015250565b6000612af4602383612a1b565b9150612aff82612a98565b604082019050919050565b60006020820190508181036000830152612b2381612ae7565b9050919050565b7f54686973206f776e657220646f65736e27742065786973740000000000000000600082015250565b6000612b60601883612a1b565b9150612b6b82612b2a565b602082019050919050565b60006020820190508181036000830152612b8f81612b53565b9050919050565b7f4e487b7100000000000000000000000000000000000000000000000000000000600052601160045260246000fd5b6000612bd0826122f7565b9150612bdb836122f7565b925082821015612bee57612bed612b96565b5b828203905092915050565b7f4e487b7100000000000000000000000000000000000000000000000000000000600052603260045260246000fd5b6000612c33826122f7565b91507fffffffffffffffffffffffffffffffffffffffffffffffffffffffffffffffff8203612c6557612c64612b96565b5b600182019050919050565b7f4e487b7100000000000000000000000000000000000000000000000000000000600052603160045260246000fd5b7f4e487b7100000000000000000000000000000000000000000000000000000000600052602260045260246000fd5b60006002820490506001821680612ce657607f821691505b602082108103612cf957612cf8612c9f565b5b50919050565b7f54686973206f776e657220616c72656164792065786973747300000000000000600082015250565b6000612d35601983612a1b565b9150612d4082612cff565b602082019050919050565b60006020820190508181036000830152612d6481612d28565b9050919050565b7f596f7520617265206e6f7420617574686f72697a656420666f7220746869732060008201527f616374696f6e2e00000000000000000000000000000000000000000000000000602082015250565b6000612dc7602783612a1b565b9150612dd282612d6b565b604082019050919050565b60006020820190508181036000830152612df681612dba565b9050919050565b7f596f75206861766520616c726561647920636f6e6669726d656420746869732060008201527f7472616e73616374696f6e2e0000000000000000000000000000000000000000602082015250565b6000612e59602c83612a1b565b9150612e6482612dfd565b604082019050919050565b60006020820190508181036000830152612e8881612e4c565b9050919050565b7f54686973207472616e73616374696f6e2068617320616c72656164792062656560008201527f6e2065786563757465642e000000000000000000000000000000000000000000602082015250565b6000612eeb602b83612a1b565b9150612ef682612e8f565b604082019050919050565b60006020820190508181036000830152612f1a81612ede565b9050919050565b60008190508160005260206000209050919050565b60006020601f8301049050919050565b600082821b905092915050565b600060088302612f837fffffffffffffffffffffffffffffffffffffffffffffffffffffffffffffffff82612f46565b612f8d8683612f46565b95508019841693508086168417925050509392505050565b6000819050919050565b6000612fca612fc5612fc0846122f7565b612fa5565b6122f7565b9050919050565b6000819050919050565b612fe483612faf565b612ff8612ff082612fd1565b848454612f53565b825550505050565b600090565b61300d613000565b613018818484612fdb565b505050565b5b8181101561303c57613031600082613005565b60018101905061301e565b5050565b601f8211156130815761305281612f21565b61305b84612f36565b8101602085101561306a578190505b61307e61307685612f36565b83018261301d565b50505b505050565b600082821c905092915050565b60006130a460001984600802613086565b1980831691505092915050565b60006130bd8383613093565b9150826002028217905092915050565b6130d6826124b2565b67ffffffffffffffff8111156130ef576130ee612881565b5b6130f98254612cce565b613104828285613040565b600060209050601f8311600181146131375760008415613125578287015190505b61312f85826130b1565b865550613197565b601f19841661314586612f21565b60005b8281101561316d57848901518255600182019150602085019450602081019050613148565b8683101561318a5784890151613186601f891682613093565b8355505b6001600288020188555050505b505050505050565b60006131aa826122f7565b91506131b5836122f7565b9250827fffffffffffffffffffffffffffffffffffffffffffffffffffffffffffffffff038211156131ea576131e9612b96565b5b828201905092915050565b600081905092915050565b6000815461320d81612cce565b61321781866131f5565b9450600182166000811461323257600181146132475761327a565b60ff198316865281151582028601935061327a565b61325085612f21565b60005b8381101561327257815481890152600182019150602081019050613253565b838801955050505b50505092915050565b600061328f8284613200565b915081905092915050565b6000815490506132a981612cce565b9050919050565b8181036132be575050613396565b6132c78261329a565b67ffffffffffffffff8111156132e0576132df612881565b5b6132ea8254612cce565b6132f5828285613040565b6000601f8311600181146133245760008415613312578287015490505b61331c85826130b1565b86555061338f565b601f19841661333287612f21565b965061333d86612f21565b60005b8281101561336557848901548255600182019150600185019450602081019050613340565b86831015613382578489015461337e601f891682613093565b8355505b6001600288020188555050505b5050505050505b565b60006133a3826122f7565b91506133ae836122f7565b9250817fffffffffffffffffffffffffffffffffffffffffffffffffffffffffffffffff04831182151516156133e7576133e6612b96565b5b828202905092915050565b7f4e487b7100000000000000000000000000000000000000000000000000000000600052601260045260246000fd5b600061342c826122f7565b9150613437836122f7565b925082613447576134466133f2565b5b82820490509291505056fea2646970667358221220b5196af542c607dc5886f74ba79161b7684aac58b84add6502c7b86f59bdcbbe64736f6c634300080f0033",
  "immutableReferences": {},
  "source": "// SPDX-License-Identifier: MIT\n\npragma solidity ^0.8.9;\n\nimport \"../node_modules/@openzeppelin/contracts/utils/math/SafeMath.sol\";\nimport \"./WalletInterface.sol\";\nimport \"./AccessController.sol\";\n\ncontract MultiSigWallet is AccessController {\n    using SafeMath for uint256;\n    /*\n     * Storage\n     */\n    struct Transaction {\n        bool executed;\n        address destination;\n        uint256 value;\n        bytes data;\n    }\n\n    // track transaction ID and keep a mapping of the same\n    uint256 public transactionCount;\n    mapping(uint256 => Transaction) public transactions;\n    Transaction[] public _validTransactions;\n\n    // track transactions ID to which owner addresses have confirmed\n    mapping(uint256 => mapping(address => bool)) public confirmations;\n\n    /*\n     * Fallback function allows to deposit ether.\n     */\n    fallback() external payable {\n        if (msg.value > 0) {\n            emit Deposit(msg.sender, msg.value);\n        }\n    }\n\n    receive() external payable {\n        if (msg.value > 0) {\n            emit Deposit(msg.sender, msg.value);\n        }\n    }\n\n    /*\n     * Modifiers\n     */\n    modifier isOwnerMod(address owner) {\n        require(\n            isOwner[owner] == true,\n            \"You are not authorized for this action.\"\n        );\n        _;\n    }\n\n    modifier isConfirmedMod(uint256 transactionId, address owner) {\n        require(\n            confirmations[transactionId][owner] == false,\n            \"You have already confirmed this transaction.\"\n        );\n        _;\n    }\n\n    modifier isExecutedMod(uint256 transactionId) {\n        require(\n            transactions[transactionId].executed == false,\n            \"This transaction has already been executed.\"\n        );\n        _;\n    }\n\n    /**\n     * @dev Contract constructor sets initial owners\n     * @param _owners List of initial owners.\n     */\n    constructor(address[] memory _owners) AccessController(_owners) {}\n\n    /*\n     * Public Functions\n     */\n\n    /**\n     * @dev Allows an owner to submit and confirm a transaction.\n     * @param destination Transaction target address.\n     * @param value Transaction ether value.\n     * @param data Transaction data payload.\n     * @return transactionId Transaction ID.\n     */\n    function submitTransaction(\n        address destination,\n        uint256 value,\n        bytes memory data\n    ) public isOwnerMod(msg.sender) returns (uint256 transactionId) {\n        // assign ID to count\n        transactionId = transactionCount;\n\n        // update transactions mapping with the transaction struct\n        transactions[transactionId] = Transaction({\n            destination: destination,\n            value: value,\n            data: data,\n            executed: false\n        });\n\n        // update new count\n        transactionCount += 1;\n\n        // emit event\n        emit Submission(transactionId);\n\n        // transactionId = addTransaction(destination, value, data);\n        confirmTransaction(transactionId);\n    }\n\n    /**\n     * @dev Allows an owner to confirm a transaction.\n     * @param transactionId Transaction ID.\n     */\n    function confirmTransaction(uint256 transactionId)\n        public\n        isOwnerMod(msg.sender)\n        isConfirmedMod(transactionId, msg.sender)\n        notNull(transactions[transactionId].destination)\n    {\n        // update confirmation\n        confirmations[transactionId][msg.sender] = true;\n        emit Confirmation(msg.sender, transactionId);\n\n        // on confirmation, execute transaction\n        executeTransaction(transactionId);\n    }\n\n    /**\n     * @dev Allows anyone to execute a confirmed transaction.\n     * @param transactionId Transaction ID.\n     */\n    function executeTransaction(uint256 transactionId)\n        public\n        isOwnerMod(msg.sender)\n        isExecutedMod(transactionId)\n    {\n        uint256 count = 0;\n        bool quorumReached;\n\n        // iterate over the array of owners\n        for (uint256 i = 0; i < owners.length; i++) {\n            // if owner has confirmed the transaction\n            if (confirmations[transactionId][owners[i]]) count += 1;\n            // if count reached the quorum specification then return true\n            if (count >= quorum) quorumReached = true;\n        }\n\n        if (quorumReached) {\n            // extrapolate struct to a variable\n            Transaction storage txn = transactions[transactionId];\n            // update variable executed state\n            txn.executed = true;\n\n            // transfer the value to the destination address, and get boolean of success/fail\n            (bool success, ) = txn.destination.call{value: txn.value}(txn.data);\n\n            if (success) {\n                _validTransactions.push(txn);\n                emit Execution(transactionId);\n            } else {\n                emit ExecutionFailure(transactionId);\n                txn.executed = false;\n            }\n        }\n    }\n\n    /**\n     * @dev Allows an owner to revoke a confirmation for a transaction.\n     * @param transactionId Transaction ID.\n     */\n    function revokeTransaction(uint256 transactionId)\n        external\n        isOwnerMod(msg.sender)\n        isConfirmedMod(transactionId, msg.sender)\n        isExecutedMod(transactionId)\n        notNull(transactions[transactionId].destination)\n    {\n        confirmations[transactionId][msg.sender] = false;\n        emit Revocation(msg.sender, transactionId);\n    }\n\n    /**\n     * Blockchain get functions\n     */\n    function getOwners() external view returns (address[] memory) {\n        return owners;\n    }\n\n    function getValidTransactions()\n        external\n        view\n        returns (Transaction[] memory)\n    {\n        return _validTransactions;\n    }\n\n    function getQuorum() external view returns (uint256) {\n        return quorum;\n    }\n}\n",
  "sourcePath": "C:\\Users\\ankit\\Desktop\\Blockchain\\MultiSignatureWallet\\contracts\\MultiSigWallet.sol",
  "compiler": {
    "name": "solc",
    "version": "0.8.15+commit.e14f2714.Emscripten.clang"
  },
  "schemaVersion": "3.4.8",
  "updatedAt": "2022-07-21T18:58:26.595Z",
  "networkType": "ethereum",
  "devdoc": {
    "kind": "dev",
    "methods": {
      "addOwner(address)": {
        "details": "Allows admin to add new owner to the wallet",
        "params": {
          "owner": "Address of the new owner"
        }
      },
      "confirmTransaction(uint256)": {
        "details": "Allows an owner to confirm a transaction.",
        "params": {
          "transactionId": "Transaction ID."
        }
      },
      "constructor": {
        "details": "Contract constructor sets initial owners",
        "params": {
          "_owners": "List of initial owners."
        }
      },
      "executeTransaction(uint256)": {
        "details": "Allows anyone to execute a confirmed transaction.",
        "params": {
          "transactionId": "Transaction ID."
        }
      },
      "removeOwner(address)": {
        "details": "Allows admin to remove owner from the wallet",
        "params": {
          "owner": "Address of the new owner"
        }
      },
      "renounceAdmin(address)": {
        "details": "Allows admin to transfer admin rights to another address",
        "params": {
          "newAdmin": "Address of the new admin"
        }
      },
      "revokeTransaction(uint256)": {
        "details": "Allows an owner to revoke a confirmation for a transaction.",
        "params": {
          "transactionId": "Transaction ID."
        }
      },
      "submitTransaction(address,uint256,bytes)": {
        "details": "Allows an owner to submit and confirm a transaction.",
        "params": {
          "data": "Transaction data payload.",
          "destination": "Transaction target address.",
          "value": "Transaction ether value."
        },
        "returns": {
          "transactionId": "Transaction ID."
        }
      },
      "transferOwner(address,address)": {
        "details": "Allows admin to transfer owner from one wallet to  another",
        "params": {
          "_from": "Address of the old owner",
          "_to": "Address of the new owner"
        }
      }
    },
    "version": 1
  },
  "userdoc": {
    "events": {
      "Deposit(address,uint256)": {
        "notice": "Events"
      }
    },
    "kind": "user",
    "methods": {
      "admin()": {
        "notice": "Storage"
      },
      "getOwners()": {
        "notice": "Blockchain get functions"
      }
    },
    "version": 1
  }
}